:04000000AAEF10F063
:020008001100E5
:10000A000B840BAE10EF00F0010E036E026A016A58
:0A001A00006A0A360232FF0E1200DF
:1000240083809580100E0D6E0D2EFED700001200F9
:100034000B820BAE24EF00F00368026801680068CD
:080044000A360232FF0E120021
:08004C000AAE029E000E120034
:1000540083909590100E0D6E0D2EFED700001200A9
:10006400240E0C6EB50E0D6E0D2EFED70C2EFCD785
:0600740000000000120074
:0A007A00530E0D6E0D2EFED712007E
:1000840083829582100E0D6E0D2EFED70000120095
:0C0094000000000000000000000012004E
:1000A00083929592100E0D6E0D2EFED70000120059
:0E00B000026A016A006A086A036A000E120002
:1000BE000201C6BF02D08C9E01D08C8EC6BD02D06E
:1000CE008C9C01D08C8CC6BB02D08C9A01D08C8AB1
:1000DE00C6B902D08C9801D08C8897B102D08D848D
:1000EE0001D08D948D82CFDF8D92C6B702D08C9EBB
:1000FE0001D08C8EC6B502D08C9C01D08C8CC6B330
:10010E0002D08C9A01D08C8AC6B102D08C9801D0C4
:10011E008C8897B102D08D8401D08D948D82B3DFFF
:0E012E008D9297A102D097DF01D0A0DF1200C2
:08013C00A3DF72DF89DF12006E
:0A014400ADDF6EDF85DF9CDF1200E7
:10014E000CB0E9EF00F00CA28FEF01F00E6A000E7A
:10015E00026400EF01F0F00E0214D8A4CBEF00F011
:10016E00023A01380F0B02260138F00B016E0038EF
:10017E000F0B01260038F00B006E08380F0B00260F
:10018E000838F00B086E0E84D89002BEE4EF00F033
:10019E0008360036013602360E2A02BEE4EF00F0B3
:1001AE0008360036013602360E2A02BEE4EF00F0A3
:1001BE0008360036013602360E2A0E50036485EFDD
:1001CE0001F0035E0BBC08AE8AEF01F0D880800E02
:1001DE0008640030000E002201220222D8A08AEF0D
:1001EE0001F0023201320032034A8FEF01F08AEF42
:1001FE0001F001C002F000C001F008C000F0086A72
:10020E00000E0E86026437EF01F0F00E0214D8A431
:10021E001FEF01F0023A01380F0B02260138F00BE6
:10022E00016E00380F0B01260038F00B006E0E84A5
:10023E00D89002BEE4EF00F00036013602360E2AE8
:10024E0002BEE4EF00F00036013602360E2A02BE80
:10025E00E4EF00F00036013602360E2AE4EF00F02D
:10026E0001C002F000C001F0006A000E0E960E886A
:10027E00026464EF01F0F00E0214D8A44FEF01F007
:10028E00023A01380F0B02260138F00B016E0E8474
:10029E00D89002BEE4EF00F0013602360E2A02BEFE
:1002AE00E4EF00F0013602360E2A02BEE4EF00F053
:1002BE00013602360E2AE4EF00F001C002F0016AA8
:1002CE00000E0E86026494EF01F0F00E0214D8A414
:1002DE0073EF01F0023A0E84D89002BEE4EF00F004
:1002EE0002360E2A02BEE4EF00F002360E2A02BEDD
:1002FE00E4EF00F002360E2AE4EF00F0010E0C6E71
:10030E007DDE97EF01F0020E0C6E99DE97EF01F095
:10031E00040E0C6E88DE97EF01F0080E0C6EC1DE37
:02032E001200BB
:0A03300091DEB6DE77DEA6DE1200D5
:0C033A008CDEA3DE72DEAFDE88DE120077
:100346000201C36B080EC35D0BE2C2AF02D097DE9B
:1003560001D0A3DE64DE7BDEC237C291C32BF2D7A7
:080366008EDE5DDE74DE120084
:0C036E0072DE89DE58DE95DE6EDE1200C5
:10037A000201C36BC46B81DE68DEC46B080EC45D08
:10038A000CE24BDE83A204D0C337C391C38102D0EF
:10039A00C337C3915ADEC42BF1D7C251010A02E115
:0C03AA00CCDE01D0C6DEC3C200F01200A1
:0E03B60002019791C2C2C6F27FDE978112004B
:1003C400030E0B6E8A0E0C6E550E0D6E0D2EFED79F
:0E03D4000C2EFCD70B2EFAD7000000001200F2
:1003E200C2C204F0C3C205F004C002F005C003F0AB
:1003F200044A052AC4C200F0C5C201F00201C44B7E
:10040200C52B00C0E9FF01C0EAFF02C0E1FF03C043
:10041200E2FFEECFE6FF02C0E9FF03C0EAFFEE52C1
:0E04220001E0E2D7C2C200F0C3C201F0120036
:10043000025006180E6E086A096A0B6A03500764B8
:100440000BEF03F006500A6E068E028E03500B6E01
:100450000750036E000E0B645BEF02F00B50075E5B
:10046000D8B4FCEF02F0070E0764CAEF02F0075E93
:1004700000C008F001C000F002C001F0026A074E9F
:10048000FCEF02F007649FEF02F0075E00C008F087
:1004900001C000F0016A074EFCEF02F007647DEF37
:1004A00002F0075E00C008F0006A074EFCEF02F0A1
:1004B000076464EF02F00AC002F005C001F004C056
:1004C00000F0086A26EF04F0030E07646FEF02F0F5
:1004D000075E08380F0B086E074EFCEF02F0D8904D
:1004E0000832074EFCEF02F0D8900832074EFCEFBE
:1004F00002F0D8900832FCEF02F0030E07648EEF92
:1005000002F0075E08380F0B086E0038F00B082663
:1005100000380F0B006E074EFCEF02F0D89000324F
:100520000832074EFCEF02F0D89000320832074E36
:10053000FCEF02F0D89000320832FCEF02F0030E1C
:100540000764B6EF02F0075E08380F0B086E00383C
:10055000F00B082600380F0B006E0138F00B002658
:1005600001380F0B016E074EFCEF02F0D8900132FC
:1005700000320832074EFCEF02F0D8900132003210
:100580000832074EFCEF02F0D890013200320832F8
:10059000FCEF02F0030E0764E7EF02F0075E083895
:1005A0000F0B086E0038F00B082600380F0B006E9A
:1005B0000138F00B002601380F0B016E0238F00BEA
:1005C000012602380F0B026E074EFCEF02F0D890A6
:1005D0000232013200320832074EFCEF02F0D890AE
:1005E0000232013200320832074EFCEF02F0D8909E
:1005F0000232013200320832096A000E0EAEF0EF0C
:1006000003F0081E001E011E021E082A00220122FD
:100610000222F0EF03F00750D8A411EF03F026EF09
:1006200004F0096A02C00AF0028E068E0750035CCD
:10063000076ED8B4E3EF03F0070E0764B1EF03F0E1
:10064000075E0450096E0550046E0650056E066A7A
:10065000074EE3EF03F0070E076486EF03F0075E33
:100660000450096E0550046E056A074EE3EF03F06F
:10067000070E076464EF03F0075E0450096E046A16
:10068000074EE3EF03F0070E07644BEF03F00AC0D9
:1006900002F026EF04F0030E076456EF03F0075E46
:1006A00009380F0B096E074EE3EF03F0D8900932BB
:1006B000074EE3EF03F0D8900932074EE3EF03F063
:1006C000D8900932E3EF03F0030E076475EF03F0EF
:1006D000075E09380F0B096E0438F00B0926043841
:1006E0000F0B046E074EE3EF03F0D890043209328B
:1006F000074EE3EF03F0D89004320932074EE3EFE0
:1007000003F0D89004320932E3EF03F0030E0764DC
:100710009DEF03F0075E09380F0B096E0438F00BEC
:10072000092604380F0B046E0538F00B0426053833
:100730000F0B056E074EE3EF03F0D890053204323D
:100740000932074EE3EF03F0D89005320432093244
:10075000074EE3EF03F0D890053204320932E3EF9D
:1007600003F0030E0764CEEF03F0075E09380F0BAA
:10077000096E0438F00B092604380F0B046E053897
:10078000F00B042605380F0B056E0638F00B052616
:1007900006380F0B066E074EE3EF03F0D8900632D3
:1007A000053204320932074EE3EF03F0D8900632E7
:1007B000053204320932074EE3EF03F0D8900632D7
:1007C000053204320932086A000E0EAEF0EF03F073
:1007D000091E041E051E061E092A042205220622E1
:1007E000095008260450002205500122065002221A
:1007F0000EBE07EF04F0D8A016EF04F0023201326B
:1008000000320832033E16EF04F020EF04F0D8B0B7
:100810001BEF04F0000E081E001E011E021E082A17
:100820000022012202220A7E1BEF04F0010E0C6E50
:100830008EDC28EF04F0020E0C6E89DC28EF04F049
:10084000040E0C6E1AEC00F028EF04F0000E0C6E93
:02085000120094
:100852000C6A0E6A0250D8A442EF04F001C002F002
:1008620000C001F0006A0E860250D8A442EF04F0E4
:1008720001C002F0016A0E960E880250D8B454EFFD
:1008820004F00E50035ED8A4D8A059EF04F0D8901B
:1008920002BE5FEF04F0003601360236032E49EF46
:1008A20004F059EF04F0010E0C6E01DC63EF04F06A
:1008B200020E0C6E05EC00F063EF04F0040E0C6EF9
:0608C20026EC00F012001C
:0808C8000B6A0B86FF0E120003
:1008D000086A080E0C6E003408360450085ED8B062
:0E08E00002D00826D89000360C2EF5D7120054
:1008EE000A6A0350D8A40A800750D8A40A820A5074
:1008FE00D8B4DAEF04F0030AD8B493EF04F00AB0D8
:10090E008EEF04F006AED8EF04F0D6EF04F002AE90
:10091E00D6EF04F0D8EF04F00250800B0A6E029E60
:10092E000650800B069E0A18D8B4A4EF04F00A50A5
:10093E00D8B4D6EF04F0D8EF04F00750035CD8B467
:10094E00AEEF04F0D8A0CAEF04F0D0EF04F00650DA
:10095E00025CD8B4B8EF04F0D8A0CAEF04F0D0EF20
:10096E0004F00550015CD8B4C2EF04F0D8A0CAEF71
:10097E0004F0D0EF04F00450005CD8B4DAEF04F0C9
:10098E00D8B0D0EF04F00A52D8B4D8EF04F0D6EFB6
:10099E0004F00A52D8B4D6EF04F0D8EF04F0D880A1
:0E09AE001200D8901200D880D88412001200D7
:1009BC00086A096A000E0762036463EF05F00250CF
:1009CC0006180A6E075003267E0ED8A0F4EF04F02A
:1009DC00035ED8B068EF05F0F8EF04F0035ED8A022
:1009EC006DEF05F0028E068E02C00EF001C00BF00A
:1009FC0000C00DF000500402F4CF0CF001500502C1
:100A0C00F4CF00F0F3CF08F00402F3500C26F450AE
:100A1C000822000E00220D500502F3500C26F45053
:100A2C000822000E002202500402F3500826F45053
:100A3C00002202500502016A000E0122F35000262A
:100A4C00F45001220D500602F3500826F4500022F7
:100A5C00026A000E012202220B500602F3500026FD
:100A6C00F4500122000E02220E500602F350012611
:100A7C00F450022202BE4BEF05F008360036013668
:100A8C0002360306D8B46DEF05F05EEF05F0D880A2
:100A9C00800E08640030000E002201220222D8A031
:100AAC005EEF05F0023201320032034A68EF05F0C6
:100ABC000AAE029E000E70EF05F0010E58EC00F02D
:100ACC0070EF05F0020E1AEC00F070EF05F0040E5A
:060ADC0005EC00F0120021
:100AE2000450000A12E10550000A0FE10650000A04
:100AF2000CE10750000A09E1FF0E006EFF0E016EC5
:100B02007F0E026EFF0E036EA7D0086A096A0750B5
:100B1200D8B41CEF06F00350D8B420EF06F0025010
:100B220006180A6E028E068E0E6A02C008F001C016
:100B32000CF000C00DF004500D5E0550D8A0053C2D
:100B42000C5E0650D8A0063C085E086A0C6A0D6A64
:100B5200D8A0B3EF05F0D890023201320032083249
:100B6200010E0E6E0750035ED8A0C0EF05F07E0E98
:100B72000E240326D8B025EF06F0C6EF05F07E0E50
:100B82000E240326D8A02AEF06F0180E0B6E0D369F
:100B92000C3608360036013602360E360450005E38
:100BA2000550D8A0053C015E0650D8A0063C025E66
:100BB20006340E120EA0E1EF05F00D80ECEF05F009
:100BC200045000260550D8B0053C01260650D8B086
:100BD200062802260D900B2EC8EF05F012EF06F044
:100BE200D8900036013602360E360450005E0550AB
:100BF200D8A0053C015E0650D8A0063C025E063431
:100C02000E10010B0D26D8B00C2AD8B4082AD8A48D
:100C120012EF06F008320C320D32032AD8B425EF57
:100C220006F00AAE089E0850026E0C50016E0D507E
:100C3200006E2DEF06F0010E46DE2DEF06F0020EDD
:100C420058EC00F02DEF06F0040E1AEC00F02DEF38
:0A0C520006F0080E05EC00F0120099
:100C5C000F013A6B396B9580838095828382936AFE
:100C6C008A6A9DEC01F0AA0E0201C26FA3EC01F09E
:100C7C000C0EC26FA3EC01F0B7EC01F0AB0EC26F1F
:100C8C00A3EC01F0C26BBDEC01F000C081FF98EC4D
:100C9C0001F04D0E0B6E190E0C6E4F0E0D6E0D2ECF
:100CAC00FED70C2EFCD70B2EFAD70000000012003A
:080CBC00067E18EC02F01200A4
:100CC4000F013A6B396B9580838095828382936A96
:100CD4008A6A9DEC01F0AA0E0201C26FA3EC01F036
:100CE4000C0EC26FA3EC01F0050EC26FA3EC01F071
:100CF40098EC01F0E2EC01F09DEC01F0AA0EC26F59
:100D0400A3EC01F00C0EC26FA3EC01F0B7EC01F000
:100D1400AB0EC26FA3EC01F0C26BBDEC01F000C0DE
:100D24008AFF4D0E0B6E190E0C6E4F0E0D6E0D2EAE
:100D3400FED70C2EFCD70B2EFAD70000000098EC3F
:040D440001F01200A8
:100D480010D0800E0201B46F1AD0C00EB46F17D045
:100D5800940EB46F14D0D40EB46F11D0800EB46F4B
:100D68000ED00201B451010AECE0B451020AEDE0E0
:100D7800B451030AEDE0B451040AEDE0EFD7B5052C
:100D8800006EB451002600C0B4F200C0C6F25FEC99
:100D980000F09791B86BB851B625E96E000EB721EF
:100DA800EA6EEE520CE0B851B625E96E000EB72196
:100DB800EA6EEECFC2F2DBEC01F0B82BECD79781EC
:020DC800120017
:100DCA000050086E0150006E016A026A036A0B6ADB
:100DDA000C6A960E036E0A6A00C001F008C000F0A1
:080DEA00086A026A31DD120003
:100DF2000201C06BC16BB4C2BCF2B5C2BDF2B6C2D5
:100E0200BEF2B7C2BFF2BF51FF0A08E1BE51FF0AEC
:100E120005E1BD51FF0A02E1BC51FF0A0DE1B8C272
:100E2200C2F2B9C2C3F2810EC46F010EC56FF1ECFA
:100E320001F0030E006EE9D1010EBA6FBEAF0ED003
:100E4200800EBE19006E00C0BEF2BA2BB8C2E1FF1E
:100E5200B9C2E2FF2D0EE66EB84BB92B000E006E42
:100E6200BF1908E10050BE1905E10050BD1902E1A9
:100E7200BC51000A0CE1B8C2C2F2B9C2C3F27F0E81
:100E8200C46F010EC56FF1EC01F0006ABED1BF5113
:100E9200FF0A08E1BE51000A05E1BD51000A02E164
:100EA200BC51000A0DE1B8C2C2F2B9C2C3F2850E4A
:100EB200C46F010EC56FF1EC01F0BAC200F0A5D10A
:100EC200000E046E000E056E000E066E7F0E076E9B
:100ED200BCC200F0BDC201F0BEC202F0BFC203F04C
:100EE20005DD010ED8B0000E006E00521BE0BCC240
:100EF20000F0BDC201F0BEC202F0BFC203F0000E9C
:100F0200046E000E056E200E066E820E076E55DD13
:100F120000C0BCF201C0BDF202C0BEF203C0BFF20B
:100F2200C107CED7000E046E000E056E200E066EAF
:100F3200820E076EBCC200F0BDC201F0BEC202F05A
:100F4200BFC203F0D3DC000ED8B0010E006E005217
:100F52001BE0BCC200F0BDC201F0BEC202F0BFC2C3
:100F620003F0CD0E046ECC0E056E4C0E066E7B0E9B
:100F7200076E23DD00C0BCF201C0BDF202C0BEF2AA
:100F820003C0BFF2C12BCED7FF0EBC15086EFF0EF9
:100F9200BD15096E7F0EBE150A6E000EBF150B6ED3
:100FA20008C004F009C005F00AC006F00BC007F043
:100FB20004360490053606360736000EBC15006E60
:100FC200000EBD15016E000EBE15026EFF0EBF159E
:100FD200036E00C0BCF201C0BDF202C0BEF203C08B
:100FE200BFF20450BC11006E0550BD11016E0650D7
:100FF200BE11026E0750BF11036E00C0BCF201C0E9
:10100200BDF202C0BEF203C0BFF27F0EBF5D006E32
:1010120000C0BBF2010EBF6F00C004F0BCC200F002
:10102200BDC201F0BEC202F0BFC203F0045007E02D
:1010320000360090013602360336FF0FF8D700C0A3
:10104200BCF201C0BDF202C0BEF203C0BFF2B8C220
:10105200E1FFB9C2E2FFBF51300FE66EB84BB92BC8
:10106200800EC119006E800E010A005C08E3800E3A
:10107200060A006E800EC119005C01E30AD0B8C2F4
:10108200E1FFB9C2E2FF2E0EE66EB84BB92B010E9C
:10109200C06F060EBB6FBB51000A54E0BF6BBCC2EF
:1010A20000F0BDC201F0BEC202F0BFC203F00036C2
:1010B20000900136023603360036009001360236C1
:1010C2000336BC510026BD510122BE510222BF513E
:1010D200032200C0BCF201C0BDF202C0BEF203C0D6
:1010E200BFF2BCC200F0BDC201F0BEC202F0BFC27C
:1010F20003F00036009001360236033600C0BCF21F
:1011020001C0BDF202C0BEF203C0BFF2B8C2E1FF2D
:10111200B9C2E2FFBF51300FE66EB84BB92BC051D6
:10112200000A0EE1C107C151000A0AE1B8C2E1FF9B
:10113200B9C2E2FF2E0EE66EB84BB92B010EC06F9C
:10114200BB07A9D7FF0EB825E96EFF0EB921EA6EDB
:10115200EE50300A05E1010EB85F000EB95BF2D71E
:10116200FF0EB825E96EFF0EB921EA6EEE502E0A87
:1011720004E1010EB85F000EB95BC151000A3FE005
:10118200B8C2E1FFB9C2E2FF650EE66EB84BB92BF9
:10119200800EC119006E800E000A005C0BE2B8C21C
:1011A200E1FFB9C2E2FF2D0EE66EB84BB92BC15179
:1011B2000008C16FC1C2BBF2C15109080FE20A0E99
:1011C200046EBBC200F068EC04F0B8C2E1FFB9C221
:1011D200E2FF0050300FE66EB84BB92B0A0E046ED8
:1011E200BBC200F068EC04F008C000F0B8C2E1FF36
:1011F200B9C2E2FF0050300FE66EB84BB92BB8C24D
:0C120200E1FFB9C2E2FFE66A006A1200D8
:10120E00010E0201B46F020EB56F0C0EB66F020E18
:10121E00B76F93DD08C2B4F209C2B5F20AC2B6F2D4
:10122E000BC2B7F2980EB86F020EB96FDBDD030E6C
:10123E00B46F010EB56F1F0EB66F020EB76F7DDD68
:10124E00030EB46F0C0EB56F980EB66F020EB76F1D
:10125E0074DDC282C2A201D0FDD7C4CF03F0026AF0
:10126E00C3CF00F0000E016E005002100101776F27
:10127E0003500110786F77C100F078C101F09EDD48
:10128E0073C104F074C105F075C106F076C107F0A4
:10129E00DEEC04F000C008F201C009F202C00AF24E
:1012AE0003C00BF27BC100F07CC101F07DC102F0E6
:1012BE007EC103F008C204F009C205F00AC206F0AE
:1012CE000BC207F018EC02F000C07BF101C07CF1FC
:1012DE0002C07DF103C07EF179C100F07AC101F048
:1012EE006DDD00C004F001C005F002C006F003C0C1
:1012FE0007F07BC100F07CC101F07DC102F07EC120
:10130E0003F071EC05F000C027F201C028F202C014
:10131E0029F203C02AF2010E01017925006E000E9A
:10132E007A21016E00C079F101C07AF108C204F091
:10133E0009C205F00AC206F00BC207F0000E006EDD
:10134E00000E016E000E026E7F0E036E77EC04F03F
:10135E00010ED8B0000E006E005245E0010E0201E3
:10136E00C66F5FEC00F0010EB46F020EB56F4B0E40
:10137E00B66F010EB76FE1DC08C2B4F209C2B5F266
:10138E000AC2B6F20BC2B7F2980EB86F020EB96F60
:10139E0029DD030EB46F010EB56F430EB66F010E4D
:1013AE00B76FCBDC030EB46F090EB56F980EB66F28
:1013BE00020EB76FC2DC030EB46F120EB56F710E54
:1013CE00B66F010EB76FB9DC080E0B6E9D0E0C6E6C
:1013DE00050E0D6E0D2EFED70C2EFCD70B2EFAD74A
:1013EE00000000005ED00201010EC66F5FEC00F03F
:1013FE00010EB46F020EB56F5E0EB66F010EB76FB3
:10140E009CDC08C200F009C201F00AC202F00BC255
:10141E0003F0000E046E000E056E7A0E066E880E38
:10142E00076EDEEC04F000C008F201C009F202C043
:10143E000AF203C00BF208C2B4F209C2B5F20AC234
:10144E00B6F20BC2B7F2980EB86F020EB96FCADCC5
:10145E00030EB46F010EB56F8C0EB66F010EB76F23
:10146E006CDC030EB46F090EB56F980EB66F020EDC
:10147E00B76F63DC030EB46F120EB56F890EB66FC5
:10148E00010EB76F5ADC080E0B6E9D0E0C6E050E1C
:10149E000D6E0D2EFED70C2EFCD70B2EFAD700009C
:0414AE000000120028
:1014B200010E0201B46F040EB56FE50EB66F000E99
:1014C200B76F41DCE1C0B4F2E2C0B5F2E3C0B6F2FC
:1014D200E4C0B7F28B0EB86F020EB96F89DC030E4F
:1014E200B46F020EB56F8B0EB66F020EB76F2BDCA8
:1014F200C282C2A201D0FDD7C4CF03F0026AC3CF19
:1015020000F0000E016E005002100001BB6F03508C
:101512000110BC6FBBC000F0BCC001F055DC000E76
:10152200046EC00E056E7F0E066E880E076E71EC9D
:1015320005F0000E046E400E056E1C0E066E8B0E3C
:10154200076EDEEC04F000C0C9F001C0CAF002C0B0
:10155200CBF003C0CCF0000E046E400E056E1C0EE4
:10156200066E8A0E076EC9C000F0CAC001F0CBC079
:1015720002F0CCC003F05EEC06F0000E046E000E2A
:10158200056E040E066E850E076E71EC05F000C046
:10159200E1F001C0E2F002C0E3F003C0E4F0000EAB
:1015A200046E000E056E000E066E7F0E076EE1C021
:1015B20000F0E2C001F0E3C002F0E4C003F077EC17
:1015C20004F0010ED8B0000E006E005250E0E1C0EF
:1015D20000F0E2C001F0E3C002F0E4C003F0000E4C
:1015E200046E000E056E7A0E066E880E076EDEEC35
:1015F20004F000C0E1F001C0E2F002C0E3F003C079
:10160200E4F0010E0201C66F5FEC00F0010EB46F50
:10161200040EB56FBD0EB66F000EB76FA4EC06F0E8
:10162200E1C0B4F2E2C0B5F2E3C0B6F2E4C0B7F290
:101632008B0EB86F020EB96FF9EC06F0030EB46FA1
:10164200020EB56F8B0EB66F020EB76FA4EC06F0EA
:10165200070E0B6E580E0C6E590E0D6E0D2EFED728
:101662000C2EFCD70B2EFAD70000000035D0020159
:10167200010EC66F5FEC00F0010EB46F040EB56F81
:10168200280EB66F010EB76FA4EC06F0E1C0B4F2FB
:10169200E2C0B5F2E3C0B6F2E4C0B7F28B0EB86FA7
:1016A200020EB96FF9EC06F0030EB46F020EB56FBD
:1016B2008B0EB66F020EB76FA4EC06F0070E0B6E20
:1016C200580E0C6E590E0D6E0D2EFED70C2EFCD739
:0A16D2000B2EFAD7000000001200F2
:0C16DC00240E0D6E0D2EFED70000120033
:1016E800010E0201B315016E0150000A02E081806B
:1016F80007D0010EB315016E0150000AD8B48190CD
:0E17080001013451010F006E00C034F11200D7
:0A17160062EC06F02EEC06F0120063
:10172000010E0201B46F040EB56F9E0EB66F000E6F
:10173000B76FA4EC06F0030EB46F010EB56F970EF1
:0C174000B66F000EB76FA4EC06F01200AC
:10174C00010E0201B46F040EB56F510EB66F000E90
:10175C00B76FA4EC06F0030EB46F010EB56F160E46
:0C176C00B66F000EB76FA4EC06F0120080
:10177800010E0201B46F040EB56F2F0EB66F000E86
:10178800B76FA4EC06F0030EB46F010EB56F600ED0
:0C179800B66F000EB76FA4EC06F0120054
:1017A400928480840F013885090EC26EC16AAA0E24
:0817B400C06E7DDEC29212003E
:1017BC00010E0201B46F040EB56F190EB66F010E57
:1017CC00B76FA4EC06F0030EB46F010EB56F350EB7
:1017DC00B66F010EB76FA4EC06F05851240AD8B4BA
:1017EC0059835851000A06E159A304D0599334C1C6
:0617FC00B3F274DF1200DD
:10180200010E0201C66F5FEC00F00C0EC66F5FECBA
:1018120000F0020E0B6E450E0C6EA90E0D6E0D2E13
:10182200FED70C2EFCD70B2EFAD7000000001200B8
:10183200010E0201B46F040EB56F6D0EB66F020E8B
:10184200B76FA4EC06F0030EB46F010EB56F730E02
:0C185200B66F020EB76FA4EC06F0120097
:10185E00010E0201B46F040EB56F790EB66F000E55
:10186E00B76FA4EC06F0030EB46F010EB56F3C0E0D
:0C187E00B66F010EB76FA4EC06F012006C
:10188A00010E0201B46F040EB56F240EB66F000E7E
:10189A00B76FA4EC06F0030EB46F010EB56F1D0E00
:0C18AA00B66F000EB76FA4EC06F0120041
:1018B600C26A070EC012C08EB2C200F00036009097
:1018C600003600900050C212C28005DFC282C2A25A
:1018D60001D0FDD7C4CF01F0006AC3500012000E3C
:0618E6000112C290120085
:1018EC00010E0201B46F040EB56F4A0EB66F020EF4
:1018FC00B76FA4EC06F0030EB46F010EB56F500E6B
:0C190C00B66F020EB76FA4EC06F01200DC
:10191800010E0201B46F040EB56FF80EB66F000E1B
:10192800B76FA4EC06F0030EB46F010EB56FF10E9D
:0C193800B66F000EB76FA4EC06F01200B2
:10194400C29227C2B4F228C2B5F229C2B6F22AC2A0
:10195400B7F2A40E0201B86F020EB96FF9EC06F0EB
:10196400010EB46F040EB56F330EB66F020EB76F6F
:10197400A4EC06F0030EB46F010EB56F2B0EB66F18
:10198400020EB76FA4EC06F0030EB46F080EB56F29
:0E199400A40EB66F020EB76FA4EC06F01200A0
:1019A200050EC26E0F0EC16EAA0EC06EC2922EDC62
:0419B200C2921200CB
:1019B600010E0201B46F040EB56FB80EB66F010EBC
:1019C600B76FA4EC06F0030EB46F010EB56FD80E18
:0E19D600B66F010EB76FA4EC06F09ADE120099
:1019E400010E0201B46F040EB56FB00EB66F000E97
:1019F400B76FA4EC06F0030EB46F010EB56FA90E19
:0C1A0400B66F000EB76FA4EC06F01200E5
:101A1000010E0201B46F040EB56FEA0EB66F010E2F
:101A2000B76FA4EC06F0030EB46F010EB56FE30EB2
:0C1A3000B66F010EB76FA4EC06F01200B8
:101A3C0002D0B2DE04D00001CD51010AFAE012004E
:101A4C0004D0B3DF09D0DEDF07D002010751010A51
:0A1A5C00F8E00751020AF7E012005B
:101A660008D0FADE13D00EDF11D057DE0FD0B7DF65
:101A76000DD000017851010AF4E07851020AF3E032
:0E1A86007851030AF2E07851040AF1E01200F0
:101A940002015851230AD8B459815851250AD8B49F
:101AA40059855851000A04E159A502D05995A7DE79
:101AB4005851000A04E159A102D05991A0DE120044
:101AC40002015851230AD8B459815851250AD8B46F
:101AD40059855851000A0BE159A509D059958FDE53
:101AE4000101182B1851040802E2010E186F0201BB
:101AF4005851000A0BE159A109D0599180DE010126
:0E1B04001807010E185D02E2040E186F1200A1
:101B120002015851230AD8B459815851250AD8B420
:101B220059855851000A0BE159A509D0599568DE2B
:101B32000001782B7851040802E2010E786F02014D
:101B42005851000A0BE159A109D0599159DE0001FF
:0E1B52007807010E785D02E2040E786F120033
:101B600004D0C4DE09D065DE07D002015751010A56
:0A1B7000F8E05751020AF7E01200F6
:101B7A0002015851230AD8B459815851250AD8B4B8
:101B8A0059855851000A0BE159A509D0599534DEF7
:101B9A000101D72BD751020802E2010ED76F0201C9
:101BAA005851000A0BE159A109D0599125DE0101CA
:0E1BBA00D707010ED75D02E2020ED76F1200B0
:101BC80004D0EBDE09D0BADE07D00101D751010AF3
:0A1BD800F8E0D751020AF7E012000E
:101BE20002015851230AD8B459815851250AD8B450
:101BF20059855851000A0AE159A508D0599500DEC5
:101C0200572B5751020802E2010E576F5851000A32
:101C12000AE159A108D05991F3DD5707010E575D2A
:081C220002E2020E576F1200EE
:101C2A0002015851230AD8B459815851250AD8B407
:101C3A0059855851000A0AE159A508D05995DCDDA1
:101C4A00072B0751020802E2010E076F5851000ADA
:101C5A000AE159A108D05991CFDD0707010E075DA6
:081C6A0002E2020E076F1200F6
:101C720008D0A3DD13D04FDE11D067DD0FD07BDD9E
:101C82000DD001011851010AF4E01851020AF3E0E3
:0E1C92001851030AF2E01851040AF1E01200A2
:101CA0000201B26B08DE00C0B0F201C0B1F2000E5A
:101CB000026E0150025C02E10050B4080AE2000E1C
:101CC0000201B15D02E1E60EB05D03E2230E586F42
:101CD0003ED00201B151020802E1B051F80809E218
:101CE000030EB15D02E18E0EB05D03E2240E586F6B
:101CF0002ED0B151010802E1B0514A0809E2010EAB
:101D0000B15D02E1900EB05D03E2250E586F1FD069
:101D1000B151020802E1B051800809E2020EB15D42
:101D200002E1EE0EB05D03E2260E586F10D0B15105
:101D3000010802E1B051D60809E2020EB15D02E1EC
:101D4000260EB05D03E2270E586F01D0586B1200CB
:081D500014DF3ADFA5DF1200E9
:081D5800B5DE8BDFA1DF1200F4
:081D600099DE6CDE9DDF12002C
:081D6800D4DE7DDE99DF1200DC
:081D700038DFF6DE95DF1200FA
:081D780058DF68DE91DF120064
:101D8000010E0201B46F030EB56F070EB66F010EA0
:101D9000B76FA4EC06F0030EB46F020EB56F3E0EE3
:101DA000B66F000EB76FA4EC06F05851240AD8B4F1
:101DB00059835851000A0DE159A30BD0599321DDE5
:101DC0005851270A05E05851260A02E0C5DFF8D726
:041DD00018DD120008
:101DD400010E0201B46F030EB56F390EB66F020E19
:101DE400B76FA4EC06F0030EB46F010EB56FCE0E00
:101DF400B66F000EB76FA4EC06F05851240AD8B49D
:101E040059835851000A0DE159A30BD0F8DC5993BA
:101E14005851270A05E05851260A02E09FDFF8D7F7
:041E2400EEDC1200DE
:101E2800010E0201B46F030EB56FA70EB66F010E57
:101E3800B76FA4EC06F0030EB46F010EB56F940EE5
:101E4800B66F010EB76FA4EC06F05851240AD8B447
:101E580059835851000A0DE159A30BD0CEDC599390
:101E68005851270A05E05851260A02E06DDFF8D7D5
:041E7800C4DC1200B4
:101E7C00010E0201B46F030EB56FF60EB66F010EB4
:101E8C00B76FA4EC06F0030EB46F020EB56FC40E60
:101E9C00B66F010EB76FA4EC06F05851240AD8B4F3
:101EAC0059835851000A0DE159A30BD0A4DC599366
:101EBC005851270A05E05851260A02E057DFF8D797
:041ECC009ADC12008A
:101ED000010E0201B46F030EB56F670EB66F000EF0
:101EE000B76FA4EC06F0030EB46F020EB56F840E4C
:101EF000B66F000EB76FA4EC06F05851240AD8B4A0
:101F000059835851000A0DE159A30BD0599379DC3C
:101F10005851270A05E05851260A02E025DFF8D774
:041F200070DC12005F
:101F2400010E0201B46F030EB56F7A0EB66F020E86
:101F3400B76FA4EC06F0030EB46F020EB56F5A0E21
:101F4400B66F020EB76FA4EC06F05851240AD8B449
:101F540059835851000A0DE159A30BD050DC599311
:101F64005851270A05E05851260A02E0FFDEF8D747
:041F740046DC120035
:101F780002015851230AD8B459815851250AD8B4B6
:101F880059855851000A0AE159A508D0599535DCF8
:101F9800152A1550060802E2010E156E5851000A5E
:101FA8000AE159A108D0599128DC1506010E155CE3
:081FB80002E2060E156E120094
:101FC000969296949598959A959C959E8D928D94BF
:101FD0008C9E8C9C8C9A8C9832EC00F032EC00F049
:101FE00032EC00F08C8A8C888D824AEC00F08D9265
:101FF00032EC00F08D824AEC00F08D9232EC00F071
:102000008D824AEC00F08D9232EC00F08C988D823B
:102010004AEC00F08D9232EC00F08D824AEC00F038
:102020008D928C9A8C8E8D824AEC00F08D9232ECDF
:1020300000F08C9E8C888D824AEC00F08D928C98FA
:102040008D824AEC00F08D9232EC00F08D824AECE9
:1020500000F08D928C888D824AEC00F08D9232ECEB
:1020600000F08C988D824AEC00F08D928C8E8C8CD6
:102070008C8A8C888D824AEC00F08D9232EC00F0D4
:062080000201978112002D
:102086000CD07BDE1CD021DF1AD049DF18D0F3DE5E
:1020960016D09DDE14D0C5DE12D01550010AF1E02F
:1020A6001550020AF0E01550030AEFE01550040A35
:1020B600EEE01550050AEDE01550060AECE01200B8
:1020C6007CDF010EC66F5FEC00F00C0EC66F5FEC96
:1020D60000F00F013B6B396B928080809282808288
:1020E600050EC26E0F0EC16EAA0EC06EC2929390FE
:1020F6008A9093928A9293948A94938A818A938CF3
:10210600818C938E818E948082809482828295982F
:102116008398959A839A959C839C959E839E969286
:08212600849296948494120047
:10212E000900F5CFE6FF0006FBE10106F9E112001A
:10213E00020159915993599559975999AADD15DF6D
:06214E009BDFFCD712002C
:0C215400EBEC11F0B6DFF1DFFDD7FFD798
:1023D60010EE15F0760E006E030E016E600EF66EB0
:0E23E600210EF76E000EF86E97EC10F012004C
:01216000017D
:07216100746573746533001F
:072168007465737465320019
:0B216F0057415454494D4554524F0055
:0F217A004652455155454E43494D4554524F002D
:102189003C3C20204652455155454E43494120206B
:032199003E3E00C7
:0F219C004652455155454E43494D4554524F000B
:0721AB0074657374653400D4
:1021B2004261746572696120646520546573746557
:0121C200001C
:0121C300011A
:0B21C40057415454494D4554524F0000
:1021CF003C3C202020504F54454E43494120202075
:0321DF003E3E0081
:0721E200746573746533009E
:0B21E90057415454494D4554524F00DB
:0721F400746573746534008B
:0B21FB0057415454494D4554524F00C9
:022206000000D6
:0C220800434F5252454E544520414300C4
:0422140000000000C6
:0122180001C4
:10221900203C3C202020434F5252454E544520201B
:032229003E3E0036
:04222C0000000000AE
:0C223000434F5252454E5445204143009C
:07223C007465737465320044
:0F2243004652455155454E43494D4554524F0063
:1022520042617465726961206465205465737465B6
:01226200007B
:012263000179
:0F2264004652455155454E43494D4554524F0042
:0C227300434F5252454E54452041430059
:01227F00015D
:072280007465737465310001
:0722870074657374653100FA
:08228E0054656E73616F3A00A4
:10229600524620564F4C54414745204D4F4E4954C7
:0322A6004F520094
:1022A900524620564F4C54414745204D4F4E4954B4
:0322B9004F520081
:0222BC005600CA
:0422BE000928207A51
:0222C20000001A
:0222C400010017
:0422C6000000000014
:0222CA003000E2
:0422CC004E614E0011
:0422D000494E46002D
:0322D4006D560044
:0822D70054656E73616F3A005B
:1022DF00203C3C2020202054454E53414F202020AD
:0322EF003E3E0070
:1022F2004261746572696120646520546573746516
:0123020000DA
:0C23030054454D50455241545552410084
:10230F003C3C202054454D5045524154555241209C
:03231F003E3E003F
:0123220001B9
:0B232300646174616C6F676765720095
:07232E007465737465320051
:0C23350054454D50455241545552410052
:1023410042617465726961206465205465737465C6
:01235100008B
:012352000189
:042353000000000086
:10235700524620564F4C54414745204D4F4E495405
:032367004F5200D2
:08236A0054656E73616F3A00C7
:042372000000000067
:0823760054656E73616F3A00BB
:06237E004D4544494100F9
:102384004261746572696120646520546573746583
:012394000048
:06239500424F4D424100E1
:07239B0074657374653100E5
:0123A2000139
:0123A3000039
:0123A4000038
:1023A5003C3C2020202020424F4D4241202020202F
:0323B5003E3E00A9
:0623B800424F4D424100BE
:0723BE0074657374653200C1
:1023C5004261746572696120646520546573746542
:0123D5000007
:020000040030CA
:0D000100221F3CFFBD81FF0FC00FE00F402C
:00000001FF
